S01B000044434D6F746F725370656564436F6E746F726C2E737265639F
S11300000C942A000C943F000C943F000C943F0085
S11300100C943F000C943F000C943F000C943F0060
S11300200C943F000C943F000C943F000C943F0050
S11300300C943F000C943F000C943F000C943F0040
S11300400C943F000C943F000C943F000C943F0030
S11300500C943F0011241FBECFE5D8E0DEBFCDBF16
S113006010E0A0E6B0E0E8E7F1E002C005900D92F0
S1130070A236B107D9F70E9452000C94BA000C942E
S1130080000012BC89E685BD14BC0895899A8A9A39
S11300908B988C988D988F9A939A949A959A929A11
S11300A0919808950E9446000E944100809160004A
S11300B083BD3AEF46E422E094E083991FC0849B19
S11300C01DC0859B1BC0E3EDF0E33197F1F700C041
S11300D00000839BFECFE3EDF0E33197F1F700C01E
S11300E00000809160008A3F20F48B5F8093600061
S11300F002C0309360008091600083BD839B1FC069
S113010084991DC0859B1BC0E3EDF0E33197F1F7A3
S113011000C00000849BFECFE3EDF0E33197F1F7DC
S113012000C0000080916000863420F085508093E8
S1130130600002C0409360008091600083BD839B97
S1130140BCCF849BBACF8599B8CFE3EDF0E3319768
S1130150F1F700C00000859BFECFE3EDF0E331979B
S1130160F1F700C0000082B3822782BB82B38927E3
S10B017082BBA3CFF894FFCF7A
S105017846003B
S9030000FC
